:020000040800F2
:10000000A8020020150B0008B1020008B302000886
:10001000B7020008BB020008BF0200080000000091
:10002000000000000000000000000000C302000803
:10003000C502000800000000C7020008C90200084D
:100040002B0B00082B0B00082B0B00082B0B0008B8
:100050002B0B00082B0B00082B0B00082B0B0008A8
:100060002B0B0008650900082B0B00082B0B000860
:100070002B0B00082B0B00082B0B00082B0B000888
:100080002B0B00082B0B00082B0B00082B0B000878
:100090002B0B00082B0B00082B0B00082B0B000868
:1000A0002B0B00082B0B00082B0B00082B0B000858
:1000B0002B0B00082B0B00082B0B00082B0B000848
:1000C0002B0B00082B0B00082B0B00082B0B000838
:1000D0002B0B00082B0B00082B0B00082B0B000828
:1000E0002B0B00082B0B00082B0B000800F002F86C
:1000F00000F03FF80AA090E8000C82448344AAF183
:100100000107DA4501D100F034F8AFF2090EBAE880
:100110000F0013F0010F18BFFB1A43F0010318473B
:10012000F41D0000141E0000103A24BF78C878C1E6
:10013000FAD8520724BF30C830C144BF04680C60ED
:10014000704700000023002400250026103A28BF35
:1001500078C1FBD8520728BF30C148BF0B60704739
:10016000782901F02D85002070471FB51FBD10B5FF
:1001700010BD01F079FE1146FFF7F7FF00F008F817
:1001800001F097FE03B4FFF7F2FF03BC00F062FC3E
:1001900000F00BF9002211464FF4165000F069FCF4
:1001A0001BA001F0D9FC25A001F0D6FC27A001F08E
:1001B000D3FC00F0B1FB00F0E3FB00F0ACF926E06B
:1001C0002AA001F0C9FC08212E4800F0F7F901200F
:1001D00000F013FC2C480078A8B100202A490870D0
:1001E0002A4800F023FA04466CB129A001F0B4FCBF
:1001F000002506E02548415D2BA001F0ADFC681C00
:10020000C5B2A542F6DB4FF4FA7000F0F6FBD7E773
:100210000D0A2D2D2D2D2D2D2D2D2D2D20447561CB
:100220006C2D43482043414E20484154202D2D2D14
:100230002D2D2D2D2D2D2D0D0A00000053544D3345
:1002400032463130334338543620000056312E3098
:100250002E30204275696C6420323032322F3037B4
:100260002F31322031373A34300D0A000D0A5374E1
:100270006172742073656E64696E67206461746175
:100280000D0A0000000000202400002008000020CB
:10029000546865207265636569766564206461747D
:1002A000612069733A0000002530325820000000B8
:1002B000704700BFFEE700BFFEE700BFFEE700BFDC
:1002C000FEE7704770477047704700000CB500208C
:1002D000019000906C48006840F480306A490860E2
:1002E00000BF6948006800F4003000900198401C8D
:1002F0000190009818B90198B0F5A06FF1D162484B
:10030000006800F4003010B10120009001E00020EE
:1003100000900098012843D15C48006840F010002C
:100320005A4908600846006820F003000860084643
:10033000006840F002000860534840685249486035
:100340000846406848600846406840F4806048605D
:100350000846406820F47C1048600846406840F435
:10036000E81048600846006840F08070086000BFF0
:100370004548006800F000700028F9D04248406805
:1003800020F00300404948600846406840F0020001
:10039000486000BF3C48406800F00C000828F9D1D4
:1003A0000CBD10B5FFF792FF10BD10B536480068C0
:1003B00040F001003449086008464068344908406C
:1003C0003149486008460068324908402E490860B3
:1003D0000846006820F4802008600846406820F441
:1003E000FE0048604FF41F008860FFF7DAFF4FF00F
:1003F00000602949086010BD10B5002100200022CE
:10040000214B5B6803F00C0121B1042906D00829B7
:1004100028D107E0214B224C236027E01F4B204CC2
:10042000236023E0184B5B6803F47010164B5B6885
:1004300003F48032022303EB904022B9194B43436B
:10044000174C23600DE0104B5B6803F4003323B1BD
:10045000144B4343124C236003E0104B4343104CB6
:10046000236003E00D4B0E4C236000BF00BF064B22
:100470005B68C3F303130C4CE15C094B1B68CB4076
:10048000074C236010BD0000001002400020024015
:100490000000FFF8FFFFF6FE08ED00E000127A0012
:1004A0001000002000093D001400002070B5054632
:1004B0000C4600206F490860022000F0CDF9284664
:1004C00000F0CAF9204600F0C7F901206A49C1F8D6
:1004D000B00170BD70B50446002066490860032075
:1004E00000F0BAF9204600F0B7F9002000F0B4F9A6
:1004F000054601206049C1F8B001284670BD10B51D
:1005000000205C490860C02000F0A6F901205A498B
:10051000C1F8B00110BD10B50024FFF7F0FF0120B5
:1005200000F06BFA00212A20FFF7C0FF8A21292062
:10053000FFF7BCFF01212820FFF7B8FFFF21312082
:10054000FFF7B4FFE0213220FFF7B0FF0021612068
:10055000FFF7ACFF00216220FFF7A8FF20216020F9
:10056000FFF7A4FF08216520FFF7A0FFFF2100206F
:10057000FFF79CFFE0210120FFF798FFFF212020DB
:10058000FFF794FFE0212120FFF790FF00212C20AE
:10059000FFF78CFF01212B20FFF788FF44210F205C
:1005A000FFF784FF0E20FFF795FF044604F0E000FC
:1005B00018B144210F20FFF779FF10BD2DE9F0415C
:1005C00007460D4600262DE04FF0000806E001200A
:1005D00000F013FA08F1010000F0FF083020FFF7E7
:1005E00079FF00F0080010B1B8F1320FEFDB002402
:1005F0000DE03246731CDEB2B95C04F13602D0B2B3
:10060000FFF754FF601CC4B2AE4200DB01E0082CCF
:10061000EFDB00BF21463520FFF748FF08213020DF
:10062000FFF744FFAE42CFDBBDE8F0812DE9F0419A
:1006300005460024002600272C20FFF74BFF074625
:1006400007F0010070B16520FFF744FF064607E0A0
:1006500004F16601C8B2FFF73DFF2855601CC4B223
:10066000B442F5DB00212C20FFF720FF3046BDE827
:10067000F0810000B08121420080214270B5054622
:10068000002405E0601CC4B2C82C01DD002070BD50
:100690000221854801F099F90028F3D029468248C3
:1006A00001F040F9002405E0601CC4B2C82C01DD53
:1006B0000020ECE701217C4801F087F90028F3D005
:1006C000794801F031F9C0B2E1E700B587B0012106
:1006D000042000F0C3FD0121080300F0BFFDE0206D
:1006E000ADF8180018208DF81B0003208DF81A00B3
:1006F00006A96E4800F0F6FAE0216C4800F09FFB76
:1007000023208DF8000001208DF8010002208DF8D3
:10071000020001208DF80300684600F01AFA00205C
:10072000ADF804004FF48270ADF806000020ADF87B
:100730000800ADF80A00ADF80C004FF40070ADF8F9
:100740000E003820ADF810000020ADF81200072090
:10075000ADF8140001A9544801F00EF801215248E7
:1007600001F0AFF8FF20FFF789FF07B000BD00B52B
:1007700087B00121082000F071FD0121880300F0FD
:100780007AFD4FF46040ADF8180018208DF81B007A
:1007900003208DF81A0006A9454800F0A3FA4FF48B
:1007A0006041434800F04BFB24208DF800000120FD
:1007B0008DF8010002208DF8020001208DF8030061
:1007C000684600F0C6F90020ADF804004FF48270CE
:1007D000ADF806000020ADF80800ADF80A00ADF84D
:1007E0000C004FF40070ADF80E003820ADF810008A
:1007F0000020ADF812000720ADF8140001A92D4823
:1008000000F0BAFF01212B4801F05BF807B000BDF2
:1008100010B50446244800884FF6C77108402249A5
:100820000880084600882043088001211E4801F006
:1008300048F810BD10B504461E4800884FF6C77131
:1008400008401C4908800846008820430880012190
:10085000184801F036F810BD70B50546002405E0D3
:10086000601CC4B2C82C01DD002070BD02211148FB
:1008700001F0ABF80028F3D029460E4801F052F8F9
:10088000002405E0601CC4B2C82C01DD0020ECE7A8
:100890000121084801F099F80028F3D0054801F03B
:1008A00043F8C0B2E1E70000003001400008014019
:1008B000000C01400038004008B50121082000F07C
:1008C000CDFC0121124800F0DEFA4FF48050ADF863
:1008D000000010208DF8030003208DF80200694607
:1008E0000C4800F0FFF94FF480510A4800F0A7FAD5
:1008F0000820ADF8000048208DF80300694605483F
:1009000000F0F0F9FFF733FF2020FFF793FF08BD59
:1009100000023000000C01400EB5FFF7CDFF0121B1
:10092000084600F09BFC0321012000F0F1FA0820AA
:10093000019000208DF808000C208DF8090001A816
:1009400001F088F809208DF8000002208DF80100E0
:1009500003208DF8020001208DF80300684600F0A6
:10096000F8F80EBD10B50548007810B9012003490C
:100970000870082001F0E5F810BD000024000020F8
:1009800010B56FF0040000F02EF92E4800682E49D3
:10099000B0FBF1F02D4908700846007800EB4001EB
:1009A000C1EBC0104FF6FF7101EAC0002849088072
:1009B00010BD0146254A12784A434FF0E0235A61A0
:1009C00000229A611A46126942F001021A6100BFC0
:1009D0004FF0E022106900F001021AB100F48032F9
:1009E000002AF5D04FF0E022126922F001024FF008
:1009F000E0231A6100229A6170470146144A128866
:100A00004A434FF0E0235A6100229A611A46126964
:100A100042F001021A6100BF4FF0E022106900F0BD
:100A200001021AB100F48032002AF5D04FF0E02222
:100A3000126922F001024FF0E0231A6100229A614C
:100A4000704700001000002000127A0026000020ED
:100A500028000020014600BF704700BF2B4A1288C3
:100A600002F04002002AF9D0C2B2284B1B1D1A80A6
:100A7000704770B586B004460E461546012144F213
:100A8000050000F0EBFB4FF40070ADF814000320FC
:100A90008DF8160018208DF8170005A91C4800F0E5
:100AA00021F94FF48060ADF8140004208DF8170090
:100AB00005A9174800F016F925208DF800008DF8DB
:100AC00001608DF8025001208DF80300684600F0A7
:100AD00040F801940020ADF80800ADF80A00ADF828
:100AE0000C00ADF810000C20ADF80E0001A907486D
:100AF00000F05BFC012240F22551044800F0EDFCBF
:100B00000121024800F0DDFC06B070BD0038014054
:100B10000008014008480047FEE7FEE7FEE7FEE761
:100B2000FEE7FEE7FEE7FEE7FEE7FEE703480449CF
:100B3000024A044B70470000ED000008A8000020A6
:100B4000A8020020A800002031490143314A116069
:100B5000704770B5002100230F22C47804B32D4CD8
:100B6000246804F4E064C4F5E064210AC1F10403DC
:100B7000CA40447804FA03F18478144021430901FF
:100B8000254C0678A155047804F01F050124AC40DB
:100B900005786D11AD0005F1E025C5F8004109E0CB
:100BA000047804F01F050124AC401C4D0678761132
:100BB00045F8264070BD1A4A0A400243154B1B1FD8
:100BC0001A60704739B1134A121D12680243114B63
:100BD0001B1D1A6006E00F4A121D126882430D4B5E
:100BE0001B1D1A607047042808D14FF0E0210969E5
:100BF00041F004014FF0E022116107E04FF0E021E5
:100C0000096921F004014FF0E022116170470000F2
:100C10000000FA050CED00E000E400E080E100E0F7
:100C200080FFFF1F10B50446CC48844208D1012143
:100C3000042000F02DFB0021042000F029FB46E0F9
:100C4000C748844208D10121082000F021FB00217F
:100C5000082000F01DFB3AE0C248844208D101217F
:100C6000102000F015FB0021102000F011FB2EE0F9
:100C7000BD48844208D10121202000F009FB002159
:100C8000202000F005FB22E0B848844208D1012171
:100C9000402000F0FDFA0021402000F0F9FA16E0B3
:100CA000B348844208D10121802000F0F1FA0021EC
:100CB000802000F0EDFA0AE0AE48844207D101211D
:100CC000801500F0E5FA0021A01500F0E1FA10BD52
:100CD00010B50121084600F0DBFA0021012000F0E8
:100CE000D7FA10BD2DE9F04102460025002600206C
:100CF00000230024002791F803C00CF00F0591F8A1
:100D000003C00CF0100CBCF1000F03D091F802C02E
:100D10004CEA050591F800C0BCF1000F31D0146811
:100D200000202BE04FF0010C0CFA00F3B1F800C0EA
:100D30000CEA03069E4220D183004FF00F0C0CFA00
:100D400003F7BC4305FA03FC4CEA040491F803C022
:100D5000BCF1280F06D14FF0010C0CFA00FCC2F8D0
:100D600014C00AE091F803C0BCF1480F05D14FF060
:100D7000010C0CFA00FCC2F810C0401C0828D1D3AA
:100D80001460B1F800C0BCF1FF0F34DD54680020DE
:100D90002EE000F1080C4FF0010808FA0CF3B1F84E
:100DA00000C00CEA03069E4221D183004FF00F0CD5
:100DB0000CFA03F7BC4305FA03FC4CEA040491F86F
:100DC00003C0BCF1280F05D100F1080C08FA0CF89B
:100DD000C2F8148091F803C0BCF1480F07D100F1AC
:100DE000080C4FF0010808FA0CF8C2F81080401CFB
:100DF0000828CED35460BDE8F0814FF6FF71018022
:100E0000022181700421C17070470246002093685E
:100E10000B400BB1012000E00020704701468868BC
:100E200080B2704702460020D3680B400BB101200E
:100E300000E0002070470146C86880B27047016139
:100E40007047416170470AB1016100E0416170473C
:100E5000C16070474FF480320A43826181618261D0
:100E600082698269704702460020434B18684FF63A
:100E70008073184040EA021008433F4B18607047E7
:100E80003E49C8617047F0B50A460023002400219E
:100E9000002500F00046B6F1004F02D1364EF16950
:100EA00001E0354E7168C0F3034583B200F440168B
:100EB000B6F5401F08D121F070612F4E766826F0FC
:100EC00070662D4F7E6012E000F48016B6F5801F2C
:100ED00006D1032606FA05F4A14341F0706106E04D
:100EE000460D360103FA06F6B14341F0706122B1B6
:100EF000460D360103FA06F6314300F00046B6F11E
:100F0000004F02D11C4EF16101E01B4E7160F0BD3B
:100F100030B500228B071C0F0F2303FA04F2164B87
:100F200008338C1053F824309343134C08348D103D
:100F300044F8253023468C1053F824308C07240FB6
:100F400000FA04F423430C4C08348D1044F8253087
:100F500030BD0A49DC3108607047000000080140DC
:100F6000000C014000100140001401400018014035
:100F7000001C014000200140000001400000204210
:100F8000DF48006840F00100DD490860084640681D
:100F9000DC490840DA49486008460068DA490840F8
:100FA000D74908600846006820F480200860084699
:100FB000406820F4FE0048604FF41F0088607047CE
:100FC000CF49096821F48031CD4A11601146096882
:100FD00021F480211160B0F5803F03D0B0F5802F5F
:100FE0000ED106E0C649096841F48031C44A116057
:100FF00007E0C349096841F4A021C14A116000E03B
:1010000000BF00BF704710B501460022002300203A
:101010004A11012A02D1BA4C236806E0022A02D101
:10102000B74C236A01E0B64C636A01F01F02012449
:1010300094401C400CB1012000E0002010BD38B5E8
:10104000002000900024002500BF3120FFF7DBFFC7
:1010500005460098401C00900098B0F5A06F01D0A4
:10106000002DF2D03120FFF7CEFF08B1012400E0BF
:101070000024204638BD01460020A14A106820F017
:10108000F80040EAC10010607047A049086070474E
:10109000024600209A4B586820F47C1042EA010373
:1010A0001843974B58607047984908667047014647
:1010B0000020934A506820F00300084350607047B6
:1010C0008F48406800F00C007047014600208C4AB1
:1010D000506820F0F000084350607047014600203F
:1010E000874A506820F4E06008435060704701462A
:1010F0000020834A506820F4605040EAC1005060EC
:10110000704729B17E4A527A02437D4B5A7204E0FD
:101110007B4A527A82437A4B5A7270477B49D83164
:101120000860704701460020754A506820F440402E
:101130000843506070470021714A20321170704A94
:1011400082F82010012802D004280AD104E00121ED
:101150006B4A2032117005E00521694A2032117076
:1011600000E000BF00BF70476949086070476449EC
:10117000096A0143624A116270476549443908604F
:10118000704730B500210022002400235C4D6D68BB
:1011900005F00C0121B1042905D0082923D105E06F
:1011A0005C4D056022E05B4D05601FE0544D6D68AD
:1011B00005F47012524D6D6805F48034022505EB7C
:1011C00092421CB9544D554305600BE04C4D6D687F
:1011D00005F400351DB1504D5543056002E04D4DFD
:1011E0005543056002E04B4D056000BF00BF444D14
:1011F0006D6805F0F0010909484D6B5C0568DD403C
:1012000045603F4D6D6805F4E061090A434D6B5C34
:101210004568DD4085603A4D6D6805F46051C90A46
:101220003E4D6B5C4568DD40C560354D6D6805F42D
:101230004041890B3A4D6B5CC568B5FBF3F5056120
:1012400030BD29B12E4A526902432D4B5A6104E048
:101250002B4A526982432A4B5A61704729B1284A66
:1012600092690243264B9A6104E0254A92698243BF
:10127000234B9A61704729B1214AD2690243204B1E
:10128000DA6104E01E4AD26982431D4BDA6170477D
:1012900029B11B4AD2680243194BDA6004E0184AAC
:1012A000D2688243164BDA60704729B1144A12693A
:1012B0000243134B1A6104E0114A12698243104B36
:1012C0001A61704712494039086070470F49C86475
:1012D00070470B49C87170470948406A40F08070F8
:1012E00007494862704701460020054A92680A4053
:1012F0000AB1012000E00020704701498872704760
:10130000001002400000FFF8FFFFF6FE000042421E
:101310008004424200127A0000093D0030000020A3
:101320004000002010B50446FB48844209D1012149
:101330008803FFF7ADFF00214FF48040FFF7A8FFBF
:1013400032E0F648844209D101214804FFF7ADFF9D
:1013500000214FF40030FFF7A8FF25E0F048844259
:1013600009D101218804FFF7A0FF00214FF480205C
:10137000FFF79BFF18E0EB48844209D10121C80424
:10138000FFF793FF00214FF40020FFF78EFF0BE0E3
:10139000E548844208D101210805FFF786FF0021B6
:1013A0004FF48010FFF781FF10BD2DE9F04786B0A4
:1013B00005460E460024A24600BFA1460027B0897C
:1013C00000B100BF2F462C8A4CF6FF700440F08815
:1013D00004432C82AC894EF6F3100440B088318966
:1013E0000843718908430443AC81AC8A4FF6FF403F
:1013F0000440B0890443AC8201A8FFF7C2FEC6488E
:10140000874202D1DDF810A001E0DDF80CA0A88928
:1014100000F4004040B10AEBCA0000EB0A1031684A
:101420004900B0FBF1F807E00AEBCA0000EB0A1034
:1014300031688900B0FBF1F86420B8FBF0F00401DA
:101440002009642101FB1089A88900F4004040B103
:10145000322000EBC900B0FBF1F000F007000443BC
:1014600008E0322000EB09106421B0FBF1F000F03D
:101470000F0004432C8106B0BDE8F0874FF41651ED
:10148000016000218180C18001810C214181002106
:101490008181704710B502460020108A4FF2FF0389
:1014A00018400B884C8823438C882343CC882343E3
:1014B0001843108210BD0021018041808180C180CD
:1014C000704721B1828942F40052828104E082890E
:1014D0004DF6FF731A4082817047F0B50346002431
:1014E00000260025002040F66A17B94200D100BF4F
:1014F0001846C1F3421401F01F06012707FA06F54A
:10150000012C01D10C3004E0022C01D1103000E09C
:1015100014301AB107682F43076002E00768AF4331
:101520000760F0BD1AB1838A0B43838202E0838A8D
:101530008B4383827047028A4FF6F0731A4002820F
:10154000028A0A430282704782894FF2FF731A406F
:10155000828182890A438281704721B1828942F067
:101560000202828104E082894FF6FD731A40828173
:101570007047028A4FF6DF731A400282028A0A43DA
:101580000282704721B1028A42F48042028204E062
:10159000028A4BF6FF731A4002827047C1F30802B9
:1015A0008280704701468888C0F3080070478189AF
:1015B00041F0010181817047028BD2B20283028B1C
:1015C00042EA012202837047028B02F47F420283C7
:1015D000028B0A430283704721B1828A42F02002C3
:1015E000828204E0828A4FF6DF731A40828270475B
:1015F00021B1828A42F01002828204E0828A4FF690
:10160000EF731A408282704721B1828A42F0080249
:10161000828204E0828A4FF6F7731A408282704712
:1016200021B1828942F40042828103E08289C2F3BF
:101630000E028281704721B1828A42F40062828266
:1016400004E0828A4FF2FF731A4082827047828AD6
:101650004FF6FB731A408282828A0A438282704765
:1016600021B1828A42F00202828204E0828A4FF62D
:10167000FD731A408282704702460020B1F5007F58
:1016800000D100BF13880B400BB1012000E0002007
:10169000704701F40072B2F5007F00D100BFCA4369
:1016A0000280704770B50246002400230025002008
:1016B00040F66A16B14200D100BFC1F3421501F0F5
:1016C0001F03012606FA03F3012D02D19689334048
:1016D00006E0022D02D1168A334001E0968A33409B
:1016E0000C12012606FA04F41688344013B10CB12A
:1016F000012000E0002070BD10B50022002340F65C
:101700006A14A14200D100BF0A1201249440A3B27E
:10171000DC43048010BD000000380140004400405C
:1017200000480040004C00400050004010B5044606
:10173000BE48844208D101218014FFF7A9FD002191
:10174000A014FFF7A5FD16E0B948844208D1012195
:101750000014FFF7AAFD00212014FFF7A6FD0AE000
:10176000B448844207D10121C013FFF79EFD002138
:10177000E013FFF79AFD10BD10B50022028802F4B5
:1017800041520B884C8823438C882343CC882343C5
:101790000C8923434C8923438C892343CC892343DD
:1017A0001A430280838B4FF2FF74234083830B8A9A
:1017B000038210BD2DE9F04F85B005460C464FF071
:1017C000000902274FF000084FF0010B0026B24637
:1017D000A88B4FF240010840A88302202884B5F866
:1017E0001C90A068022801D100BF38E0A08810B981
:1017F0004FF0010B01E04FF0020B8D48854200D104
:1018000000E000BF6846FFF7BCFCDDF800A0E08800
:10181000B0F5007F0AD14FEA1A2000EB80004000AB
:10182000A168B0FBF1F0401D86B20BE04FEA4B100F
:10183000BAFBF0F000EB80004000A168B0FBF1F0D3
:10184000401D86B20A20B6FBF0F606F00108A6EBB2
:101850000800C0F34F074FF6FF7000EA0828022F78
:1018600001DBFF2F02DD02274FF00008E08840EA8D
:10187000080038432884A088A18908436188084368
:101880002188084340F4006040EA0909A5F81C904B
:1018900005B0BDE8F08F0021018041808180C180CA
:1018A000018141818181C18107210182704700212D
:1018B000018041808180C18002218160002181817D
:1018C000704721B1028842F04002028004E00288A1
:1018D0004FF6BF731A400280704721B1828B42F4E9
:1018E0008062828304E0828B4FF6FF331A4082834A
:1018F000704730B5002400230C110125A540ABB280
:101900001AB185881D43858002E085889D438580C6
:1019100030BD1AB183880B43838002E083888B43F8
:1019200083807047818170470146888970474FF6F0
:10193000FF62914204D0028842F48072028004E087
:1019400002884FF6FF631A400280704721B18288F7
:1019500042F00402828004E082884FF6FB731A4052
:101960008280704702884FF2FF731A40028002881B
:101970000A4302807047018841F48051018070471A
:1019800021B1028842F40052028004E002884DF640
:10199000FF731A400280704702460020012901D0DF
:1019A000108B00E0908A70470146088A7047B1F5B5
:1019B000804F04D1028842F48042028004E0028811
:1019C0004BF6FF731A4002807047024600201389CD
:1019D0000B400BB1012000E000207047CA43028198
:1019E0007047F0B50246002000240023002501F0D6
:1019F0000F070126BE40B4B20B1101269E40B3B2C0
:101A0000968806EA03051689264016B10DB1012015
:101A100000E00020F0BD10B5002201F00F0401230A
:101A2000A3409AB2D343038110BD000000300140AF
:101A300000380040003C0040002044490860091D77
:101A40000860091D0860091D086041483F491431BC
:101A50000860704700213D498279002A3AD00A4641
:101A6000126803689A430B461A600A1D12680368DD
:101A70009A430B1D1A60027911440A6803681A43DD
:101A80000A60324A0832126803689A432F4B0833BF
:101A90001A601A1D126803689A432C4B0C331A60A3
:101AA0004279102A0ED11A1F126803681A43274B75
:101AB00008331A601A1D126803681A43234B0C334B
:101AC0001A600DE02149427911440A6803681A43FB
:101AD0000A6005E0027911440A6803689A430A60C3
:101AE00070470021016001710C2141710021817159
:101AF00070471649103109680143144A10321160C9
:101B0000704701460020114A143212680A400AB197
:101B1000012000E0002070470C4914310860704734
:101B2000014600200022094B1B6803EA0102074B13
:101B300014331B680B4013B10AB1012000E00020F0
:101B400070470249143108607047000000040140EA
:101B5000FFFF0F00704700000FB4044910B503AA3F
:101B6000029800F053F910BC5DF814FB2C00002023
:101B700070B5044685690068C10601D5302600E0CD
:101B80002026C00707D070BDD4E901213046904718
:101B9000206A401C20626D1EF6D570BD70B50446EB
:101BA00085690078C00707D170BDD4E901212020E4
:101BB0009047206A401C20626D1EF6D570BD000063
:101BC00070B504460D4621461068AFF300802188A9
:101BD000090502D50F4A7A4402E00E4A7A440E32D1
:101BE000002104F1240305E000F00F060009965DD2
:101BF0005E54491C0028F7D120780023000704D543
:101C0000702D02D009B1022311322046BDE8704088
:101C100000F0A2B8000300002DE9F05F89460446F9
:101C20004FF0000ADFF824B1FB44C0F820A02046A2
:101C3000E168884700287DD0252806D0D4E9012115
:101C40009047206A401C2062F1E700255F4620464D
:101C5000E16888472028064607DB312E05D2B819EF
:101C600010F8200C08B10543F1E7A80701D525F0CD
:101C70000405C4F81CA00027C4F818A02A2E09D017
:101C8000304600F023F938B304EB8708303EC8F83B
:101C9000186019E059F8041B204604EB8702916193
:101CA000E1688847012F064618D1E069002820DA4C
:101CB00025F020051DE0D8F8180000EB800006EBA9
:101CC00040003038C8F818002046E16888470646CA
:101CD00000F0FCF80028EED1012F0AD02E2E08D1FA
:101CE0002046E16888477F1C0646022F45F0200504
:101CF000C4DBA069002803DA404245F00105A06179
:101D0000E80701D025F01005A6B1A6F14100192879
:101D100002D8203645F400654A4631462046256003
:101D20004D46FEF71DFA60B1012807D0ED1D25F0E4
:101D3000070000E007E000F1080978E705F1040971
:101D400075E730467AE7206ABDE8F09FD6020000CA
:101D500070477047704770472DE9F0470D46994628
:101D60009246044600F124080168880604D5E0691B
:101D700021F01001216000E00120A84201DD471B95
:101D800000E00027A1697A1902EB0900081AA06196
:101D90002078C00602D42046FFF7EAFE002608E0BD
:101DA000D4E901211AF806009047206A401C761CED
:101DB00020624E45F4DB2078C0060AD52046FFF7A6
:101DC000D7FE06E0D4E9012130209047206A401C6C
:101DD0002062381EA7F10107F4DC07E0D4E90121F5
:101DE00018F805009047206A401C2062281EA5F1C3
:101DF0000105F3DC2046FFF7D1FE2078000602D56E
:101E00000220BDE8F0870120FBE70000074B70B51A
:101E10000D467B4400F011F80446284600F020F8F7
:101E200010B14FF0FF3070BD204670BD45ECFFFF94
:101E300001694A1C02610878704700B58FB0CDE98E
:101E400001310021059105497944CDE9031011467E
:101E50006846FFF7E1FE0FB000BD0000E5FFFFFFA1
:101E6000007B00F080007047754600F02BF8AE460E
:101E700005006946534620F00700854618B020B596
:101E8000FEF754FEBDE820404FF000064FF000077B
:101E90004FF000084FF0000B21F00701AC46ACE812
:101EA000C009ACE8C009ACE8C009ACE8C0098D467F
:101EB000704710B50446AFF300802046BDE81040DF
:101EC000FEF760B9004870474400002030380A2807
:101ED00001D2012070470020704730313233343551
:101EE0003637383941424344454640305800303156
:101EF0003233343536373839616263646566403071
:101F0000780004000008000000000000000200014A
:101F100000001000341F00080000002044000000F2
:101F200028010008781F0008440000206402000017
:101F30004401000800112233445566770000000078
:101F40000000000000A24A040000000000000000A1
:101F50000102030406070809000000000000000059
:101F6000000000000000000001020304010203045D
:081F7000060708090204060837
:04000005080000ED02
:00000001FF
